:100000000C94AC030C94C9030C94C9030C94C9035D
:100010000C94C9030C9406040C94C9030C94C903F2
:100020000C94C9030C94F41A0C94C9030C94C903DE
:100030000C94C9030C94A6040C94C9030C94C90332
:100040000C94701C0C94C9030C94C9030C94C90340
:100050000C94791A0C94371A0C94C9030C94C903A4
:100060000C9498140C94C9030C94C9030C94C90300
:100070000C94C9030C94C9030C94C903B80ECD0E9B
:10008000CD0ECD0ECD0ECD0ECD0ECD0ECD0ECD0E98
:10009000CD0EAD0ECD0E350EC80ECD0ECD0ECD0E45
:1000A000CD0ECD0ECD0ECD0ECD0E560ECD0ECD0EEF
:1000B000CD0ECD0E860ECD0E790ECD0ECD0ECD0E03
:1000C000CD0ECD0ECD0ECD0E4B0ECD0ECD0ECD0EDA
:1000D0006C0ECD0E610ECD0ECD0ECD0EBD0ECD0E25
:1000E000CD0ECD0ECD0ECD0ECD0ECD0ECD0ECD0E38
:1000F000CD0ECD0ECD0ECD0E930ECD0ECD0ECD0E62
:10010000CD0ECD0ECD0ECD0ECD0ECD0ECD0ECD0E17
:10011000CD0ECD0ECD0ECD0ECD0ECD0ECD0ECD0E07
:10012000CD0ECD0ECD0ECD0EA00ECD0ECD0ECD0E24
:10013000CD0ECD0E400EA911AE11AE11AE11AE1105
:10014000AE11AE11AE11AE11AE11AE119E11AE11C7
:100150002611AE11AE11AE11AE11AE11AE11AE112F
:10016000AE11AE114711AE11AE11AE11AE11771135
:10017000AE116A11AE11AE11AE11AE11AE11AE11CB
:10018000AE113C11AE11AE11AE115D11AE11521196
:10019000AE11AE11AE11AE11AE11AE11AE11AE1167
:1001A000AE11AE11AE11AE11AE11AE11AE11AE1157
:1001B000AE118411AE11AE11AE11AE11AE11AE1171
:1001C000AE11AE11AE11AE11AE11AE11AE11AE1137
:1001D000AE11AE11AE11AE11AE11AE11AE11AE1127
:1001E000AE119111AE11AE11AE11AE11AE113111B1
:1001F000462D2D2D2D2D2D2D2D2D2D2D2D2D762DCD
:10020000762D2D2D2D2D2D2D2D2D2D2D2D2D377C7C
:100210002E2E2E2E2E2E2E2E2E2E2E2E2E7C207C70
:100220002E2E2E2E2E2E2E2E2E2E2E2E2E7C7C2E52
:10023000462D2D2D372E462D2D2D372E7C207C2E14
:10024000462D2D2D372E462D2D2D372E7C7C2E7CA8
:100250002020207C2E4C2D2D2D4A2E4C2D4A2E4C0C
:100260002D2D2D4A2E7C2020207C2E7C7C2E7C2047
:1002700020207C2E2E2E2E2E2E2E2E2E2E2E2E2E6C
:100280002E2E2E2E7C2020207C2E7C7C2E7C20204E
:10029000207C2E462D2D2D372E462D372E462D2DEA
:1002A0002D372E7C2020207C2E7C7C504C2D2D2D1B
:1002B0004A2E4C2D2D2D4A2E4C2D4A2E4C2D2D2DB7
:1002C0004A2E4C2D2D2D4A507C7C2E2E2E2E2E2E3D
:1002D0002E2E2E2E2E2E2E2E2E2E2E2E2E2E2E2E3E
:1002E0002E2E2E2E2E2E2E7C7C2E462D2D2D372E74
:1002F00046372E462D2D2D2D2D2D2D372E46372EC2
:10030000462D2D2D372E7C7C2E4C2D2D2D4A2E7CCE
:100310007C2E4C2D2D3720462D2D4A2E7C7C2E4CAC
:100320002D2D2D4A2E7C7C2E2E2E2E2E2E2E7C7C9C
:100330002E2E2E2E7C207C2E2E2E2E7C7C2E2E2EB3
:100340002E2E2E2E7C4C2D2D2D2D2D372E7C4C2DF2
:100350002D37207C207C20462D2D4A7C2E462D2DAD
:100360002D2D2D4A2020202020207C2E7C462D2D36
:100370004A204C2D4A204C2D2D377C2E7C202020CD
:100380002020202020202020207C2E7C7C2020204B
:1003900020202020202020207C7C2E7C202020203B
:1003A00020202D2D2D2D2D2D4A2E4C4A20462D2D31
:1003B0002020202D2D37204C4A2E4C2D2D2D2D2D3B
:1003C0002D202020202020202E2020207C202020B6
:1003D000202020207C2020202E20202020202020B3
:1003E0002D2D2D2D2D2D372E4637204C2D2D2D2DFD
:1003F0002D2D2D4A2046372E462D2D2D2D2D2D20ED
:1004000020202020207C2E7C7C20202020202020CA
:10041000202020207C7C2E7C2020202020202020BA
:10042000202020207C2E7C7C20462D2D2D2D2D2D36
:100430002D37207C7C2E7C202020202020462D2D36
:100440002D2D2D4A2E4C4A204C2D2D3720462D2D5A
:100450004A204C4A2E4C2D2D2D2D2D377C2E2E2E04
:100460002E2E2E2E2E2E2E2E2E2E7C207C2E2E2E1E
:100470002E2E2E2E2E2E2E2E2E2E7C7C2E462D2DEA
:100480002D372E462D2D2D372E7C207C2E462D2DC2
:100490002D372E462D2D2D372E7C7C2E4C2D3720A2
:1004A0007C2E4C2D2D2D4A2E4C2D4A2E4C2D2D2D93
:1004B0004A2E7C20462D4A2E7C7C502E2E7C207C81
:1004C0002E2E2E2E2E2E2E2E202E2E2E2E2E2E2E5A
:1004D0002E7C207C2E2E507C3E2D372E7C207C2E98
:1004E00046372E462D2D2D2D2D2D2D372E46372ED0
:1004F0007C207C2E462D3C3E2D4A2E4C2D4A2E7CB7
:100500007C2E4C2D2D3720462D2D4A2E7C7C2E4CBA
:100510002D4A2E4C2D3C7C2E2E2E2E2E2E2E7C7CCB
:100520002E2E2E2E7C207C2E2E2E2E7C7C2E2E2EC1
:100530002E2E2E2E7C7C2E462D2D2D2D2D4A4C2DF3
:100540002D372E7C207C2E462D2D4A4C2D2D2D2DE9
:100550002D372E7C7C2E4C2D2D2D2D2D2D2D2D2D02
:100560004A2E4C2D4A2E4C2D2D2D2D2D2D2D2D2D41
:100570004A2E7C7C2E2E2E2E2E2E2E2E2E2E2E2EE3
:100580002E2E2E2E2E2E2E2E2E2E2E2E2E2E2E2E8B
:100590002E7C4C2D2D2D2D2D2D2D2D2D2D2D2D2D1C
:1005A0002D2D2D2D2D2D2D2D2D2D2D2D2D2D2D2D7B
:1005B0004A005072657373206120627574746F6EA7
:1005C00020746F20737461727420616761696E00BA
:1005D00047414D45204F5645520050757368206184
:1005E00020627574746F6E206F72206B6579207451
:1005F0006F20636F6E74696E7565004C6576656C0F
:1006000020636F6D706C657465005361766564205E
:1006100047616D6520457869737473004353534592
:10062000323031302F373230312070726F6A65636B
:100630007420627920596F756E6773752043686FF7
:1006400069202D2034353138323832320050616320
:100650002D4D616E00C006BD06B906B506B106ADEA
:1006600006A906A506A1069D062F072B0727072327
:10067000071F071B071707130710070C07080704B6
:1006800007FF06FB06F706F306EE06EA06E606E1B6
:1006900006DD06D806D306CE06C906C406649292C5
:1006A0007D6C92926D809EA0C17C92924DE4A2A23C
:1006B0009D182848FF4492926D468A926342FE0339
:1006C0007C92A27D868A92A2C3E0100E10E1C62819
:1006D0001028C7FC021C02FDF8040204F9FC020207
:1006E000FD8080FE80816492924DFE9098677C82AE
:1006F0008A7C03FE9090617C82827DFE2010FFFE4A
:10070000403040FFFE020203FE1028C7040202FD33
:1007100082FE83FE1010FF7C82925DFE909081FE2F
:10072000929283FE82827D7C828245FE92926D7ED1
:1007300090907F1B5B3F32356C001B5B25646D0026
:100740001B5B324A001B5B306D001B5B3143001B9F
:100750005B25643B2564480011241FBECFEFD8E021
:10076000DEBFCDBF11E0A0E0B1E0EAE3F2E402C0F9
:1007700005900D92A23FB107D9F724E0A2EFB1E0B6
:1007800001C01D92A338B207E1F70E944F180C94E4
:100790001B210C940000E8E6F0E0808182608083F9
:1007A000D99AECE6F0E080818F6080831092F201AC
:1007B00008958091F20118163CF58091F3016FB70E
:1007C000F8949091F2019230B4F021E030E091E0A1
:1007D000F901ED50FE4F4081F901EE50FE4F40838C
:1007E0009F5F292F30E04091F201042E000C550B41
:1007F000241735076CF39091F20191509093F20118
:1008000066231CF4789408958FEF08951F920F9239
:100810000FB60F9211242F933F934F935F936F93D3
:100820007F938F939F93EF93FF9343B14F7080E03B
:1008300090E0642F70E02091F201243004F59B01D8
:10084000082E02C0359527950A94E2F720FF17C0BD
:100850002091F70130E0082E02C0359527950A94C3
:10086000E2F720FD0CC0E091F20121E02E0F209371
:10087000F2010E2E000CFF0BED50FE4F808301960F
:1008800084309105C1F64093F701FF91EF919F915C
:100890008F917F916F915F914F913F912F910F9029
:1008A0000FBE0F901F901895559A80E4809380009A
:1008B00088E08093810082E080936F0086BB78940B
:1008C00008954F9942C0813079F48FE891E0909378
:1008D00089008093880081E08093AE02E1E8F0E037
:1008E00080818360808321C0823079F48FE891E039
:1008F000909389008093880081E08093B102E1E8C1
:10090000F0E080818260808310C0833071F48FE8D2
:1009100091E0909389008093880081E08093B002F9
:10092000E1E8F0E08081836080830E94D60CDC01E6
:10093000CB0188539F4FAF4FBF4F8093B20290932C
:10094000B302A093B402B093B50208951F920F9220
:100950000FB60F9211242F933F934F935F936F9392
:100960007F938F939F93AF93BF93EF93FF930E94D7
:10097000251C6093B6027093B7028093B8029093DF
:10098000B9028091B002813011F58091B20290914C
:10099000B302A091B402B091B5024091B602509159
:1009A000B7026091B8027091B90284529A4FAF4F6A
:1009B000BF4F481759076A077B0748F0E1E8F0E0A6
:1009C0008081887F80831092B0025598559A8091DB
:1009D000B102813009F066C08091B2029091B302F9
:1009E000A091B402B091B5024091B6025091B70205
:1009F0006091B8027091B90288519C4FAF4FBF4FC0
:100A0000481759076A077B0730F081EC91E0909313
:100A10008900809388008091B2029091B302A091E6
:100A2000B402B091B5024091B6025091B702609104
:100A3000B8027091B90284529A4FAF4FBF4F481716
:100A400059076A077B0730F083EF91E090938900A4
:100A5000809388008091B2029091B302A091B40279
:100A6000B091B5024091B6025091B7026091B802C0
:100A70007091B9028053984FAF4FBF4F4817590735
:100A80006A077B0778F0E1E8F0E080818B7F808364
:100A900080818E7F808380818D7F80831092B102E0
:100AA0005598559A8091AE02813009F066C08091C8
:100AB000B2029091B302A091B402B091B5024091FC
:100AC000B6025091B7026091B8027091B9028C5091
:100AD0009E4FAF4FBF4F481759076A077B0730F04B
:100AE0008DE591E090938900809388008091B20217
:100AF0009091B302A091B402B091B5024091B602B8
:100B00005091B7026091B8027091B902805E9C4F1B
:100B1000AF4FBF4F481759076A077B0730F08BE28A
:100B200091E090938900809388008091B202909127
:100B3000B302A091B402B091B5024091B6025091B7
:100B4000B7026091B8027091B902845B9B4FAF4FBE
:100B5000BF4F481759076A077B0778F0E1E8F0E0D4
:100B600080818B7F808380818E7F808380818D7F59
:100B700080835598559A1092AE02FF91EF91BF91E4
:100B8000AF919F918F917F916F915F914F913F9125
:100B90002F910F900FBE0F901F901895282F663041
:100BA00011F06731C9F4213011F02D31B9F4E62F7D
:100BB000F0E0EE0FFF1FEE0FFF1FEA5EFD4F80819A
:100BC0009181A281B38104C0B695A7959795879529
:100BD0002A95D2F78170089580E0089580E0089505
:100BE0006F3039F494EF980F81E0973060F080E037
:100BF00008956E3039F492EF980F81E0933018F039
:100C000080E0089580E00895CF93DF9390911302E0
:100C1000891305C090911202691709F441C0ADE033
:100C2000B2E0E9E0F2E090E02D91821303C0208170
:100C30006217C1F19F5F31969430B1F7D62FC82F5C
:100C40000E94CE05811130C04D2F50E02C2F30E096
:100C5000FA01EE0FFF1FEE0FFF1FEA5EFD4F8081CE
:100C60009181A281B3810C2E04C0B695A79597956A
:100C700087950A94D2F780FD19C08FE1849FF00117
:100C8000859FF00D1124E20FF31FE051FE4FE49118
:100C9000E03281F0EE3271F0E03561F08EEF11C09C
:100CA0008DEF0FC0892F0DC08AEF0BC08CEF09C0EC
:100CB0008FEF07C06D2F8C2F0E94F0058111F8CFA8
:100CC0008BEFDF91CF910895413081F028F04230D1
:100CD00041F0433081F018C08823C1F020E09FEF3D
:100CE0000EC08E31A9F020E091E009C0662391F09A
:100CF0002FEF90E004C06E3179F021E090E0620FB8
:100D0000890F0E94040608958EEF08958EEF0895CE
:100D10008EEF08958EEF08958EEF0895CF92DF92B3
:100D2000EF92FF920F931F93CF93DF93082FF62E2E
:100D30000E94F005E82EC0E0D0E010E0CC24C3947F
:100D4000D12C4C2F6F2D802F0E9464068E3F4CF4C7
:100D5000C6010C2E02C0880F991F0A94E2F7182BC7
:100D60000CC0EE2051F08F3F41F4C6010C2E02C0A2
:100D7000880F991F0A94E2F7182B2196C430D105E9
:100D800001F7812FDF91CF911F910F91FF90EF908D
:100D9000DF90CF90089570E06F5F7F4F90E00196F5
:100DA0000E94CB1B81E20E94F71BE0911102F0E050
:100DB000EE0FFF1FEB52FE4F81818F9380818F9347
:100DC00082E291E09F938F930E94BC1D0E94E51BDD
:100DD0000F900F900F900F9008951F93CF93DF9374
:100DE000162FC42FD0E0862F90E0BE016F5F7F4F9B
:100DF00001960E94CB1B8CE20E94F71BCC0FDD1FDB
:100E0000CC0FDD1FCA5EDD4F88819981AA81BB812D
:100E100004C0B695A795979587951A95D2F780FF48
:100E200005C08EE290E00E94F81D04C080E290E0D0
:100E30000E94F81D0E94E51BDF91CF911F9108953C
:100E40000F931F93CF93DF93182F062FC62FD0E059
:100E500090E0BE016F5F7F4F01960E94CB1B602F19
:100E6000812F0E94CE05882341F080E20E94F71B6B
:100E70008FE490E00E94F81D1EC0CC0FDD1FCC0F48
:100E8000DD1FCA5EDD4F88819981AA81BB8104C0C4
:100E9000B695A795979587951A95D2F780FF07C0C5
:100EA0000E94E51B8EE290E00E94F81D04C080E2E3
:100EB00090E00E94F81DDF91CF911F910F9108954E
:100EC000FF920F931F93CF93DF93C82FD62FF42E4B
:100ED000042F10E0862F90E0B8016F5F7F4F0196DE
:100EE0000E94CB1BEC2FF0E0EB51FE4F80810E9463
:100EF000F71B6F2D8D2F0E94CE05882341F08EE1C8
:100F00000E94F71B8FE490E00E94F81D1DC0000FA7
:100F1000111F000F111FF801EA5EFD4F80819181C2
:100F2000A281B38104C0B695A79597958795DA9568
:100F3000D2F780FF05C08EE290E00E94F81D04C049
:100F400080E290E00E94F81D0E94E51BDF91CF91A6
:100F50001F910F91FF900895CF92DF92EF92FF9231
:100F600090E00E94701864E070E081E290E00E94DE
:100F7000CB1B0E949B189F938F937F936F9385E267
:100F800091E09F938F930E94BC1D0E949B186B0160
:100F90007C010E94A4180F900F900F900F900F905B
:100FA0000F906C157D058E059F05E8F40E949B1837
:100FB000CB010E94901866E070E081E290E00E9410
:100FC000CB1B0E94A4189F938F937F936F9385E20E
:100FD00091E09F938F930E94BC1D0F900F900F90F4
:100FE0000F900F900F90FF90EF90DF90CF900895AB
:100FF000CF93C82FE0911202F0E0EE0FFF1FEE0F2B
:10100000FF1FEA5EFD4F81E090E0A0E0B0E00090BD
:10101000130204C0880F991FAA1FBB1F0A94D2F79E
:10102000408151816281738184279527A627B72744
:1010300080839183A283B3838091140290911502DF
:101040000197909315028093140261E070E081E2B1
:1010500090E00E94CB1B8BE291E09F938F9382E202
:1010600091E09F938F930E94BC1D809114029091F8
:1010700015020F900F900F900F908436910568F035
:101080009F938F938AE491E09F938F930E94BC1D5E
:101090000F900F900F900F9014C080E290E00E948C
:1010A000F81D809115028F93809114028F938AE42A
:1010B00091E09F938F930E94BC1D0F900F900F9013
:1010C0000F908C2F0E94AC07CF9108958091FC0166
:1010D00080958093FC010895CF92DF92EF92FF926A
:1010E0001F93CF93DF93182F609112028091130208
:1010F0000E94200780910401815080930401C12F38
:10110000D0E0CE01875F9D4F7C01FE01E35FFD4F84
:101110006F01FC016081F60180810E94CB06BE0157
:101120006A5F7F4F660FF60160838FE0F70180836F
:101130004FE0812F0E94ED06CB5FDE4F1882809139
:10114000FD019091FE01009759F488EC90E0909396
:10115000FE018093FD0188EC90E0A0E0B0E008C0C3
:101160009C01220F331FC9013093FE012093FD0122
:101170000E94701864E070E081E290E00E94CB1B56
:101180000E949B189F938F937F936F9385E291E0CA
:101190009F938F930E94BC1D0E949B186B017C0142
:1011A0000E94A4180F900F900F900F900F900F9027
:1011B0006C157D058E059F05E8F40E949B18CB01F8
:1011C0000E94901866E070E081E290E00E94CB1BE4
:1011D0000E94A4189F938F937F936F9385E291E071
:1011E0009F938F930E94BC1D0F900F900F900F90B4
:1011F0000F900F9083E00E946104DF91CF911F91C7
:10120000FF90EF90DF90CF9008951092FE01109222
:10121000FD010895CF93909104029923A1F0C82F66
:10122000482F60911202809113020E9464068E3F43
:1012300061F0C093110260911202809113020E942A
:10124000CB0681E003C080E001C080E0CF9108952B
:10125000DF92EF92FF920F931F93CF93DF930E9441
:1012600026150F2EFDE0EF2EF2E0FF2EF02D09E007
:1012700012E0DCE0C0E00F2EFFE0DF2EF02DF801E1
:101280006081F70180810E942007F701D1937F01DF
:10129000F801D1928F014D2D6D2F8C2F0E94600788
:1012A000CF5FDE5FC43059F762E070E081E290E02A
:1012B0000E94CB1B8DE491E09F938F9382E291E09B
:1012C0009F938F930E94BC1D0E942C151F928F9399
:1012D0008AE491E09F938F930E94BC1D0E942C157D
:1012E0002DB73EB7285F3F4F0FB6F8943EBF0FBEF5
:1012F0002DBF823019F480E682B906C00E942C15F9
:10130000813011F480E282B960911202809113025F
:101310000E9420078FE08093130287E180931202DE
:1013200067E18FE00E94CB06DF91CF911F910F9173
:10133000FF90EF90DF900895FF920F931F93CF934C
:10134000DF9390910402992309F427C2C82F90E0FB
:10135000FC01E35FFD4F1081FC01E75FFD4FF08072
:10136000FC01EB5FFD4FD0816F2D812F0E948E0617
:10137000082F882309F411C26F2D812F0E94F005D8
:10138000882309F480C101FF7EC1DFC100911302EF
:10139000011BD0911202DF196F2D812F0E948E0642
:1013A000882309F4FAC1402F002E000C550B552359
:1013B0001CF45195419551092D2F0D2E000C330B26
:1013C00033231CF4319521953109421753074CF40E
:1013D000DD231CF481FF05C0B8C11D1614F483FD84
:1013E000C8C1002354F480FD89C1DD231CF481FFB2
:1013F00081C1ABC183FDBDC17DC182FD92C1DD2331
:101400001CF481FF4FC1A1C183FDB3C14BC181E079
:1014100090E0AB01082E02C0559547950A94E2F77B
:1014200040FDA0C001968430910599F7B6C1002E09
:10143000000C110B4D2F50E0C8010D2E02C09595E8
:1014400087950A94E2F780FD94C0DC0FD3702D2FAE
:101450000D2E000C330BC8010D2E02C095958795FB
:101460000A94E2F780FD85C02E5F3F4F23703078ED
:10147000332334F4215031092C6F3F6F2F5F3F4FDE
:10148000022E02C0159507950A94E2F700FD6CC084
:101490009A012E5F3F4F23703078332334F421506C
:1014A00031092C6F3F6F2F5F3F4FD22F62C0002E4C
:1014B000000C110B20911102C801022E02C095955B
:1014C00087950A94E2F780FF02C0D22F52C00E9493
:1014D000271DDC01CB0183709927AA27B078BB2395
:1014E00054F40197A109B1098C6F9F6FAF6FBF6F63
:1014F0000196A11DB11D482F682F880F770B9B0106
:1015000023703078332334F4215031092C6F3F6F2E
:101510002F5F3F4FC801022E02C0959587950A9410
:10152000E2F780FD23C06F5F7F4F042E000C550B48
:101530004C5F5F4FCB0183709078992324F401971F
:101540008C6F9F6F0196282FF80102C0F595E795E3
:101550008A95E2F7E0FD0CC06F5F7F4F6417750757
:1015600049F71BC1D82F05C0D22F03C0D22F01C00D
:10157000D22FDD230CF411C10C2F0C2E000C110BFB
:10158000D801A75FBD4FF801E35FFD4F6C918081EB
:101590000E942007F801EB5FFD4FD083D130B9F0F6
:1015A0001CF4DD2331F020C0D23051F0D330B1F043
:1015B0001BC0F801E35FFD4F80818150808314C020
:1015C000F801E35FFD4F80818F5F80830DC0F801DC
:1015D000E75FFD4F80818150808306C0F801E75F9F
:1015E000FD4F80818F5F8083F801E35FFD4F908125
:1015F0008091130298136CC0F801E75FFD4F908152
:101600008091120298136DC054C00E942C1590E076
:101610000197181619061CF40E94280931C0F80118
:10162000E75FFD4F4081F801E35FFD4F60818091EE
:101630001302681343C08091120284133FC043C059
:1016400010920402F801EB51FE4F80810E94F71BBB
:10165000D801A75FBD4FF801E35FFD4F6C9180811A
:101660000E94CB060DC0813041F48C2F0E946C0883
:1016700007C08C2F0E94ED0603C08C2F0E946007CC
:101680000E94E51B8AC0C13009F4D1CE24F4CC23DA
:1016900009F47CCE82C0C23009F409CFC33009F40A
:1016A000C6CE7BC0682F082E000C770B80FFAFCE14
:1016B00025C080910302811114C0A7CF809103023D
:1016C0008130B9F2DACF809103028111CCCFB8CF4B
:1016D000F801E75FFD4F4081F801E35FFD4F608156
:1016E000EDCFF801E75FFD4F4081F801E35FFD4F6B
:1016F0006081A1CF682F880F770B89CE0C2F0C2E1D
:10170000000C110BD801A75FBD4FF801E35FFD4F3F
:101710006C9180810E942007F801EB5FFD4F1082E1
:1017200048CF0C2F0C2E000C110BD801A75FBD4F1A
:10173000F801E35FFD4F6C9180810E942007F80162
:10174000EB5FFD4F82E080833BCF0C2F0C2E000C13
:10175000110BD801A75FBD4FF801E35FFD4F6C91FE
:1017600080810E942007F801EB5FFD4F81E08083BC
:101770002ECF0C2F0C2E000C110BD801A75FBD4FE4
:10178000F801E35FFD4F6C9180810E942007F80112
:10179000EB5FFD4F83E0808321CFDF91CF911F91DD
:1017A0000F91FF90089581E090910402911180E0E3
:1017B000089581E02091140230911502232B09F045
:1017C00080E0089580910302089510920302089525
:1017D0006091FF01709100028091010290910202DC
:1017E0000895E82FF0E0EB5FFE4F80810895E5E07B
:1017F000F1E081E080838183828383830895CF93A6
:1018000080910402882309F4BEC0809113028111E3
:1018100013C0809112028F3021F580911102811145
:1018200020C06FE00E9420078EE180931302609138
:1018300012020E94CB0615C08E3199F480911202DB
:101840008F3079F480911102823059F46FE08EE18B
:101850000E942007109213026091120280E00E9401
:10186000CB064091110260911202809113020E94F6
:101870006406C82F8E3F09F488C0609112028091DF
:1018800013020E94200780911102811106C08091ED
:10189000130281508093130215C0823031F480917D
:1018A00013028F5F809313020DC0813031F4809159
:1018B000120281508093120205C0809112028F5F44
:1018C00080931202CC234CF180910302811165C0F8
:1018D0000E942C1590E00197181619060CF057C0BD
:1018E0000E94280981E05CC0EC2FCC0FFF0BEB516C
:1018F000FE4F80810E94F71B6091120280911302BB
:101900000E94CB061092040281E04AC0813029F483
:101910008C2F0E946C0881E043C0CC3F71F48AE0B8
:101920000E94F8070E94251C6093F8017093F9014A
:101930008093FA019093FB011EC0CA3FE1F482E359
:101940000E94F8071092FE011092FD0181E0809341
:1019500003020E94251C6093FF0170930002809394
:101960000102909302020E94F70B84E0809304012D
:1019700081E00E94610460911202809113020E9432
:10198000CB0681E00DC080E00BC080E009C08091F3
:101990000302882309F4A8CFB9CF80910302B6CF00
:1019A000CF91089584E08093040108956091F80137
:1019B0007091F9018091FA019091FB010895CF9304
:1019C000DF93CDB7DEB729970FB6F894DEBF0FBE11
:1019D000CDBF0E949B187A8369830E94A4187C83E0
:1019E0006B8367E070E081E290E00E94CB1B85E5AD
:1019F00091E09F938F9382E291E09F938F930E9457
:101A0000BC1D0F900F900F900F908091FC018823C8
:101A100039F00E94551C6D837E838F83988706C0A2
:101A20000E94251C6D837E838F8398870E942C15CE
:101A3000898748E050E060E070E08DED91E00E9421
:101A4000A02044E050E068E070E0CE0101960E94E2
:101A5000A02044E050E06CE070E0CE0103960E94CC
:101A6000A02042E050E060E170E084E192E00E945A
:101A7000A0204CE750E062E170E086E192E00E9435
:101A8000A02041E050E06EE870E083E092E00E9428
:101A9000A02044E050E06FE870E08FEF91E00E94FA
:101AA000A02044E050E063E970E085E091E00E940E
:101AB000A02041E050E067E970E084E091E00E94FE
:101AC000A02042E050E064EB70E08DEF91E00E94D6
:101AD000A02044E050E068E970E0CE0105960E9445
:101AE000A02041E050E06CE970E0CE0109960E9430
:101AF000A02041E050E06DE970E083E192E00E94B7
:101B0000A02041E050E06EE970E082E192E00E94A6
:101B1000A02041E050E06FE970E081E192E00E9496
:101B2000A02044E050E060EA70E08DE092E00E9486
:101B3000A02044E050E064EA70E089E092E00E9476
:101B4000A02044E050E068EA70E085E092E00E9466
:101B5000A02068E270E088E290E00E94CB1B85E65E
:101B600091E09F938F9382E291E09F938F930E94E5
:101B7000BC1D0F900F900F900F9029960FB6F89400
:101B8000DEBF0FBECDBFDF91CF910895CF93DF931E
:101B9000CDB7DEB728970FB6F894DEBF0FBECDBF26
:101BA00048E050E060E070E0CE0101960E94902095
:101BB0008981803581F4FE013296AEEDB1E09E015F
:101BC000275F3F4F91918D91981307C0E217F3075C
:101BD000C9F781E003C080E001C080E028960FB61D
:101BE000F894DEBF0FBECDBFDF91CF9108952F9245
:101BF0003F924F925F926F927F928F929F92AF929D
:101C0000BF92CF92DF92EF92FF920F931F93CF93E9
:101C1000DF930E94EE1B0E94E51B0E94041C61E002
:101C200070E081E090E00E94CB1B0F2EFFE06F2E52
:101C3000F2E07F2EF02D0F2EF9E92F2EF1E03F2E4E
:101C4000F02D0F2EF2E24F2EF1E05F2EF02DBCC0F2
:101C5000F601849190E0FC01B097ED35F10508F0B4
:101C60009CC0E25CFF4F0C94D61C9F928F925F92B7
:101C70004F920E94BC1D0F900F900F900F9091C03B
:101C8000BF92AF925F924F920E94BC1D0F900F9037
:101C90000F900F9086C0DF93CF935F924F920E9478
:101CA000BC1D0F900F900F900F907BC01F930F9350
:101CB0005F924F920E94BC1D0F900F900F900F905B
:101CC00070C0FF92EF925F924F920E94BC1D0F90E6
:101CD0000F900F900F9065C085E891E09F938F93D0
:101CE0005F924F920E94BC1D0F900F900F900F902B
:101CF00058C089E891E09F938F935F924F920E9422
:101D0000BC1D0F900F900F900F904BC08DE891E08D
:101D10009F938F935F924F920E94BC1D0F900F90E4
:101D20000F900F903EC081E991E09F938F935F9257
:101D30004F920E94BC1D0F900F900F900F9031C0DA
:101D400085E991E09F938F935F924F920E94BC1D13
:101D50000F900F900F900F9024C03F922F925F92A0
:101D60004F920E94BC1D0F900F900F900F9019C0C2
:101D700080E290E00E94F81D14C080E20E94F71BF0
:101D80008FE490E00E94F81D85E20E94F71B09C0D5
:101D90008EE290E00E94F81D04C088E790E00E9467
:101DA000F81DFFEFCF1ADF0A6C147D0409F050CF45
:101DB0008AE090E00E94F81D2FE1620E711C80ED18
:101DC00095E086159705D9F063019FE1C91AD108FE
:101DD0000F2EF1E8EF2EF1E0FF2EF02D0DE711E0D0
:101DE000C9E7D1E00F2EF5E7AF2EF1E0BF2EF02DC1
:101DF0000F2EF1E78F2EF1E09F2EF02D29CFC6E1B7
:101E0000D2E040E050E020E030E0812C912C540101
:101E10008394DE01188219821A821B8280E090E08E
:101E2000FC01E20FF31FE051FE4FE491EE3211F09E
:101E3000E035D1F44D905D906D907C9013977501D5
:101E40006401082E04C0CC0CDD1CEE1CFF1C0A949F
:101E5000D2F7C428D528E628F728CD92DD92ED9256
:101E6000FC9213974F5F5F4F01968F319105C1F63A
:101E7000215E3F4F2496213CE3E03E0751F650930C
:101E80001502409314028FE08093130287E1809340
:101E9000120282E08093110267E18FE00E94CB067C
:101EA0000F2EFDE0AF2EF2E0BF2EF02D0F2EF9E049
:101EB000CF2EF2E0DF2EF02D0F2EF5E0EF2EF2E028
:101EC000FF2EF02DDCE0C0E01FE002E0F501D19331
:101ED0005F01F60111936F01F70101937F01412F1B
:101EE0006D2F8C2F0E946007CF5FDE5FC43071F7CB
:101EF00061E070E081E290E00E94CB1B8BE291E018
:101F00009F938F9302E211E01F930F930E94BC1DD9
:101F1000809115028F93809114028F93CAE4D1E0CF
:101F2000DF93CF930E94BC1D62E070E081E290E0FD
:101F30000E94CB1B8DE491E09F938F931F930F938F
:101F40000E94BC1D1F9283E08F93DF93CF930E946A
:101F5000BC1D63E070E081E290E00E94CB1B87EA49
:101F600091E09F938F930DE911E01F930F930E94CF
:101F7000BC1D64E070E081E290E00E94CB1B0E94F7
:101F80009B189F938F937F936F93C5E2D1E0DF936C
:101F9000CF930E94BC1D65E070E081E290E00E945A
:101FA000CB1B82EA91E09F938F931F930F930E9424
:101FB000BC1D66E070E081E290E00E94CB1B0E94B5
:101FC000A4189F938F937F936F93DF93CF930E9477
:101FD000BC1DEDB7FEB7B4960FB6F894FEBF0FBEAA
:101FE000EDBF67E070E081E290E00E94CB1B0E94B1
:101FF000C60D882379F085E591E09F938F9382E267
:1020000091E09F938F930E94BC1D0F900F900F90B3
:102010000F900EC08DEA91E09F938F9382E291E042
:102020009F938F930E94BC1D0F900F900F900F9065
:10203000DF91CF911F910F91FF90EF90DF90CF90A4
:10204000BF90AF909F908F907F906F905F904F90D8
:102050003F902F9008950E94F70D81E08093040235
:1020600008952F923F924F925F926F927F928F923C
:102070009F92AF92BF92CF92DF92EF92FF920F9317
:102080001F93CF93DF938091BE020E942F1562E0D1
:1020900070E081E290E00E94CB1B8DE491E09F9381
:1020A0008F93C2E2D1E0DF93CF930E94BC1D0E94C8
:1020B0002C151F928F930AE411E01F930F930E9437
:1020C000BC1D8091C4029091C5020E948518809128
:1020D000CE029091CF020E94901864E070E081E2FD
:1020E00090E00E94CB1B0F2EFCEBCF2EF1E0DF2EF9
:1020F000F02DDF92CF92DF93CF930E94BC1D64E05E
:1021000070E081E290E00E94CB1B0E949B189F939D
:102110008F937F936F930F2EF5E2EF2EF1E0FF2E5A
:10212000F02DFF92EF920E94BC1D66E070E081E20C
:1021300090E00E94CB1BDF92CF92DF93CF930E945F
:10214000BC1D66E070E081E290E00E94CB1B0E9423
:10215000A4189F938F937F936F93FF92EF920E94A7
:10216000BC1D8091D0029091D10290931502809372
:10217000140261E070E081E290E00E94CB1B8BE2F0
:1021800091E09F938F93DF93CF930E94BC1DEDB797
:10219000FEB7B0960FB6F894FEBF0FBEEDBF8091AC
:1021A00015028F93809114028F931F930F930E94B7
:1021B000BC1DE3EDF2E0A6E1B2E08FE493E00F9006
:1021C0000F900F900F9041915191619171914D93AA
:1021D0005D936D937D93E817F907A9F7D0E00AC0E6
:1021E0006C2F8D2F0E942007CF5FCF31C9F7DF5FA3
:1021F000DF3111F0C0E0F4CF0E94E51B0E94041C07
:1022000061E070E081E090E00E94CB1B0F2EFFE0C8
:102210006F2EF2E07F2EF02D0F2EF9E92F2EF1E038
:102220003F2EF02D0F2EF2E24F2EF1E05F2EF02D1B
:10223000AAC0F601849190E0FC01B097ED35F1055C
:1022400008F08CC0E556FF4F0C94D61C9F928F92DD
:102250005F924F920E94BC1D0F900F900F900F90B5
:102260007FC0BF92AF925F924F920E94BC1D0F90B1
:102270000F900F900F9074C0DF93CF935F924F92A7
:102280000E94BC1D0F900F900F900F9069C01F937C
:102290000F935F924F920E94BC1D0F900F900F9072
:1022A0000F905EC0FF92EF925F924F920E94BC1D12
:1022B0000F900F900F900F9053C085E891E09F937F
:1022C0008F935F924F920E94BC1D0F900F900F90C2
:1022D0000F9046C089E891E09F938F935F924F9251
:1022E0000E94BC1D0F900F900F900F9039C08DE889
:1022F00091E09F938F935F924F920E94BC1D0F902D
:102300000F900F900F902CC081E991E09F938F93D5
:102310005F924F920E94BC1D0F900F900F900F90F4
:102320001FC085E991E09F938F935F924F920E9427
:10233000BC1D0F900F900F900F9012C03F922F92E4
:102340005F924F920E94BC1D0F900F900F900F90C4
:1023500007C080E290E00E94F81D02C00E94DC1BD2
:10236000FFEFCF1ADF0A6C147D0409F062CF8AE018
:1023700090E00E94F81D2FE1620E711C80ED95E047
:1023800086159705D9F063019FE1C91AD1080F2E70
:10239000F1E8EF2EF1E0FF2EF02D0DE711E0C9E797
:1023A000D1E00F2EF5E7AF2EF1E0BF2EF02D0F2E6E
:1023B000F1E78F2EF1E09F2EF02D3BCF60911202BE
:1023C000809113020E94200780915303809313028F
:1023D0006091D2026093120290915B03909311027C
:1023E0000E94CB060F2EF7E5AF2EF3E0BF2EF02DA7
:1023F0000F2EFDE0EF2EF2E0FF2EF02D0F2EFFEB63
:10240000CF2EF2E0DF2EF02D09E012E0C0E0F8015F
:102410006081F70180810E942007F50161915F01D1
:10242000F70161937F01F60141916F01F80141933A
:102430008F0180910302882321F08C2F0E94ED06EA
:1024400003C08C2F0E946007CF5FC43001F76091FA
:102450004F037091500380915103909152030E9459
:10246000671C80915603813081F5E5E0F1E0AAEC2C
:10247000B2E08C91808311968C9111978183129692
:102480008C911297828313968C918383809154034D
:10249000909155039093FE018093FD0181E080931C
:1024A00003028091C302809304018091C60290913F
:1024B000C702A091C802B091C9028093FF01909316
:1024C0000002A0930102B0930202DF91CF911F910D
:1024D0000F91FF90EF90DF90CF90BF90AF909F90C3
:1024E0008F907F906F905F904F903F902F900895C6
:1024F00044E050E068E070E084EC92E00E949020BC
:1025000044E050E06CE070E08EEC92E00E9490209D
:1025100042E050E060E170E080ED92E00E949020A7
:102520004CE750E062E170E083ED92E00E94902081
:1025300041E050E06EE870E086E593E00E94902074
:1025400044E050E06FE870E086EC92E00E9490205A
:1025500044E050E063E970E08AEC92E00E94902051
:1025600041E050E067E970E083EC92E00E94902047
:1025700042E050E064EB70E084E593E00E9490203C
:1025800044E050E068E970E08FE493E00E9490201E
:1025900041E050E06CE970E08EEB92E00E94902008
:1025A00041E050E06DE970E083E593E00E94902007
:1025B00041E050E06EE970E082ED92E00E949020F0
:1025C00041E050E06FE970E08BE593E00E949020DD
:1025D00044E050E060EA70E087E593E00E949020DC
:1025E00044E050E064EA70E08FEB92E00E949020BB
:1025F00044E050E068EA70E08AEB92E00E949020AC
:102600000E9431100895EF92FF920F931F93CF9382
:10261000DF938091130209EF080F402F002E000C6A
:10262000550B282F30E0275F3F4F421753070CF020
:102630009EC0D0E018E097E0E92EE81AF02E0E0DCB
:1026400080911202CCEFC80F2C2F0C2E000C330BF4
:1026500090E00496281739070CF07BC01150CF3159
:1026600018F48EE18F1530F440E0612F802F0E9426
:10267000DB145DC06C2F8F2D0E9404068E3F31F459
:102680004FE0612F802F0E94DB1451C06C2F8F2DE3
:102690000E9404068D3F31F44FED612F802F0E9480
:1026A000DB1445C06C2F8F2D0E9404068A3F31F445
:1026B0004CE3612F802F0E94DB1439C06C2F8F2DCB
:1026C0000E9404068C3F31F442E0612F802F0E946B
:1026D000DB142DC06C2F8F2D0E9404068E3F31F429
:1026E0004FE0612F802F0E94DB1421C06C2F8F2DB3
:1026F0000E940406882384F080910302811106C0A1
:1027000040EF612F802F0E94DB1411C040E1612F48
:10271000802F0E94DB140BC06C2F8F2D0E940406AB
:102720008B3F29F440E0612F802F0E94DB14DF5F94
:10273000D83011F4D0E018E0CF5F2C2F0C2E000C15
:10274000330B8091120290E00496281739070CF49D
:1027500085CF01E00F0D202F002E000C330B809150
:10276000130290E00996281739070CF467CFDF9120
:10277000CF911F910F91FF90EF90089580E4809387
:102780007C00EAE7F0E08EE8808380E092E09093BE
:1027900096028093950290939402809393021092F4
:1027A0009202808180648083089580919502909147
:1027B000960286329240B0F48091950290919602F2
:1027C000833C914078F080919302909194028632FC
:1027D000924040F48091930290919402833C914006
:1027E00008F092C080919502909196028B339240AE
:1027F00078F080919302909194028A33924040F451
:1028000080919302909194028F3A914008F07EC09B
:1028100080919502909196028935924040F0809186
:102820009302909194028039914008F471C0809194
:102830009502909196028632924078F480919502AA
:1028400090919602833C914040F080919302909148
:102850009402823C914008F45DC080919502909171
:102860009602823C914040F48091930290919402B0
:10287000823C914008F450C080919502909196025C
:10288000823C914070F48091930290919402863240
:10289000924038F48091930290919402833C91404D
:1028A000E8F58091950290919602823C914038F42F
:1028B00080919302909194028732924088F58091A2
:1028C0009502909196028632924070F48091950222
:1028D00090919602833C914038F0809193029091C0
:1028E000940287329240F0F4809195029091960282
:1028F00087329240C8F0809193029091940287327F
:102900009240A0F088E0089580E0089581E0089565
:1029100082E0089583E0089584E0089585E00895B5
:1029200086E0089587E0089580E0089580E00895A6
:102930001F920F920FB60F9211242F938F939F9394
:10294000EF93FF938091780090917900209192020B
:10295000211105C0909396028093950204C0909334
:102960009402809393029091920281E0891B80935C
:10297000920280919202811106C0ECE7F0E0808122
:102980008E7F808305C0ECE7F0E0808181608083EA
:10299000EAE7F0E0808180648083FF91EF919F916E
:1029A0008F912F910F900FBE0F901F90189580E878
:1029B0000E949D1B08951F93CF93DF938031B0F445
:1029C0006830A0F4142FC62FD82F81E00E94C51BB9
:1029D0006C2F677080E1689F900111248D2F8F709C
:1029E000822B0E94C51B812F0E94C51BDF91CF91B6
:1029F0001F9108950F931F93CF93DF93803190F42D
:102A00008B01C82F83E00E94C51B8C2F8F700E9402
:102A1000C51BE801085F1F4F89910E94C51BC017A5
:102A2000D107D1F7DF91CF911F910F91089584E0E5
:102A30000E94C51B82E00E94C51B08958FE00E9482
:102A4000C51B089583E080935C03089580915C0327
:102A5000815080935C03089580915C030895809376
:102A60005C0308950E94CC1A81B1806E81B982B155
:102A7000806E82B957980E94D7140E94CB0340E021
:102A800060E07BE480E090E00E94E4190E9454043E
:102A90000E94BE130E940D1C789408950E94EE1BA4
:102AA0006AE070E08AE090E00E94CB1B8DE496E043
:102AB0009F938F930E94D21D6CE070E08AE090E0BB
:102AC0000E94CB1B8CE196E09F938F930E94D21DB6
:102AD0000E94C60D0F900F900F900F90882371F0F9
:102AE0006EE070E08AE090E00E94CB1B8AE096E006
:102AF0009F938F930E94D21D0F900F900E941E15DE
:102B00006FED89EE91E00E94AD1812C02FE789EABF
:102B100093E0215080409040E1F700C000000E9407
:102B2000D9038F3F29F00E941E150E945E1C089554
:102B30000E94BC188111EACFE3CF0E942B100E94A3
:102B40005F180E94D9030E94321A08956AE070E06B
:102B500083E290E00E94CB1B8BEF95E09F938F93D5
:102B60000E94D21D6BE070E083E290E00E94CB1BDC
:102B70008AED95E09F938F930E94D21D0E94321A96
:102B80000F900F900F900F900E94D9038F3F21F468
:102B90000E942B1A8823C1F30E94321A0895CF9302
:102BA000DF9312B86EE070E083E290E00E94CB1BEE
:102BB00080ED95E09F938F930E94D21D60E170E0BD
:102BC00083E290E00E94CB1B82EB95E09F938F9372
:102BD0000E94D21D0F900F900F900F90CDE7D4E080
:102BE0000CC00E942B1A882341F0888199810E9491
:102BF0007E1D8F7D8E34910521F00E94D9038F3F79
:102C000081F30E940616DF91CF91089582E00E9421
:102C100061040E949D150E94E50B0E94F70B0E9423
:102C2000D20C82B1806E82B90E9422150E941B16BE
:102C30000E94CF1508953F924F925F926F927F92BC
:102C40008F929F92AF92BF92CF92DF92EF92FF92BC
:102C50000F931F93CF93DF93CDB7DEB760970FB677
:102C6000F894DEBF0FBECDBF0E94251C6B017C0116
:102C70006D877E878F87988B69877A878B879C87FC
:102C80006D837E838F83988769837A838B839C830C
:102C90002B013C01312C0FEFCFC10E94D903182F1B
:102CA0000E94E80B4B015C010E9403130E94E20B9F
:102CB0008823A1F088E9880E8AE3981EA11CB11C24
:102CC000C814D904EA04FB0448F00E94E50B0E94F2
:102CD000F70B0E94D20C0E94050918B81F3F09F09B
:102CE000B8C10E942B1A882309F49EC0EDE7F4E0D6
:102CF000808191810E947E1D311005C08B3109F4C5
:102D0000A1C1902F0DC0F1E03F1205C08B3509F431
:102D10009CC1902F05C092E039121FC0982F802FC0
:102D2000943409F099C1312C80E00E940A09DCC07A
:102D3000312C81E00E940A09D7C0113011F0923481
:102D400021F483E00E940A09CFC0112311F09334CB
:102D500029F482E00E940A09C7C0312C8F7D80359A
:102D600079F50E94331C0E94E11A0E9466080E94B5
:102D7000D9030E942B1A8823D1F3EDE7F4E0808178
:102D800091810E947E1D8F7D803529F40E94441C14
:102D90000E94E51A12C08E3419F40E940616E7CF7D
:102DA000833519F40E94DF0CE2CF8F3401F70E94C3
:102DB000C60D8823E1F20E9478120E94660894C032
:102DC0008E3419F40E9406168FC0833519F40E94C0
:102DD000DF0C8AC08F3441F50E94C60D882309F4A8
:102DE00083C00E94E11A0E9478120E94251C698308
:102DF0007A838B839C830E94251C6D837E838F83C3
:102E000098870E94251C69877A878B879C870E94F8
:102E1000251C6D877E878F87988B0E94251C2B0130
:102E20003C010E94E51A60C00E94D513813019F45C
:102E30000E940A0959C00E94D513823069F481E0CA
:102E40000E940A09811104C082E00E940A094CC054
:102E500081E00E940A0948C00E94D513833021F402
:102E600082E00E940A0940C00E94D513843069F4B0
:102E700083E00E940A09811104C082E00E940A09CD
:102E800033C083E00E940A092FC00E94D513853009
:102E900021F483E00E940A0927C00E94D5138630DE
:102EA00061F483E00E940A09811103C00E940A09AB
:102EB0001BC083E00E940A0917C00E94D513873007
:102EC00021F480E00E940A090FC00E94D5138830C7
:102ED00059F481E00E940A09811103C00E940A0985
:102EE00003C081E00E940A090E94251C6B017C013D
:102EF0000E94D30B81112CC0D301C20180579E4F79
:102F0000AF4FBF4FC816D906EA06FB0608F10E946C
:102F1000FF0B0E94D90B8823C9F00E94A6150E94BE
:102F2000F70D0E94251C2B013C016D877E878F8742
:102F3000988B69877A878B879C876D837E838F8345
:102F4000988769837A838B839C8302C0260137012B
:102F50000E94D30B811119C089819A81AB81BC81F8
:102F60008C509E4FAF4FBF4FC816D906EA06FB06DE
:102F700060F080E00E94F10B882339F080E00E942D
:102F80009C09C982DA82EB82FC820E94D30B8111F8
:102F900019C08D819E81AF81B885835F9D4FAF4FF2
:102FA000BF4FC816D906EA06FB0660F081E00E9412
:102FB000F10B882339F081E00E949C09CD82DE82EA
:102FC000EF82F8860E94D30B811119C089859A85FA
:102FD000AB85BC858A5D9D4FAF4FBF4FC816D906E4
:102FE000EA06FB0660F082E00E94F10B882339F0CC
:102FF00082E00E949C09C986DA86EB86FC860E94E4
:10300000D30B811119C08D859E85AF85B889885AEB
:103010009D4FAF4FBF4FC816D906EA06FB0660F0BA
:1030200083E00E94F10B882339F083E00E949C0921
:10303000CD86DE86EF86F88A0E94D30B882309F4BA
:103040002CCE15C033243394EFCE6894332431F85A
:10305000EBCE133031F468CE913409F469CE312CC3
:103060006CCE123009F465CE902F802F66CE60961C
:103070000FB6F894DEBF0FBECDBFDF91CF911F9189
:103080000F91FF90EF90DF90CF90BF90AF909F9007
:103090008F907F906F905F904F903F9008950E9427
:1030A00032150E944E150E94221582E00E94610492
:1030B0000E949D150E941B160E94CF15F9CF1092F9
:1030C00061031092620310926303109264031092E2
:1030D0005D0310925E0310925F03109260030895E7
:1030E00040916103509162036091630370916403A6
:1030F000480F591F611D711D409361035093620376
:1031000060936303709364030895A0E0B0E080933C
:10311000610390936203A0936303B09364030895E3
:10312000A0E0B0E080935D0390935E03A0935F0303
:10313000B093600308956091610370916203809180
:10314000630390916403089560915D0370915E0341
:1031500080915F03909160030895609309019093BB
:103160009B0280939A0210929D0210929C021092F0
:1031700099021092980208950F931F93CF93DF93B3
:10318000CDB7DEB728970FB6F894DEBF0FBECDBF20
:10319000E0919C02F0919D02309781F0149110FF14
:1031A00006C010929D0210929C0200E06BC0319606
:1031B000F0939D02E0939C0200E064C0E0919802CD
:1031C000F0919902309709F449C0CF01019690938C
:1031D000990280939802E081E1110AC0109299024D
:1031E0001092980280E18093970200E010E04AC0BC
:1031F0008FE98E0F8A3170F4F0E0EE0FFF1FE95572
:10320000FA4F8591949190939D0280939C0200E0E7
:1032100010E038C08FEB8E0F8A3170F4F0E0EE0FC3
:10322000FF1FE951FA4F8591949190939D028093ED
:103230009C0200E010E026C080ED8E0F8A3000F581
:10324000F0E0EE0FFF1FEB50FA4F859194919093B1
:103250009D0280939C0200E010E014C080919A02CD
:1032600090919B0201E0009709F000E09093990291
:103270008093980210929B0210929A0210E002C072
:1032800000E010E00E94171520910901FE01389618
:10329000CE010196112314F4208301C01082110F76
:1032A0003197E817F907B1F71982BE016F5F7F4FB9
:1032B0008FE00E94FA1480919702882389F0815050
:1032C00080939702002311F0882311F090E003C04F
:1032D00091E001C091E081E0992329F080E003C0F2
:1032E0000023A1F3F7CF28960FB6F894DEBF0FBEE8
:1032F000CDBFDF91CF911F910F910895CF93C82F2C
:103300008A3019F48DE00E947E199FB7907802C030
:10331000992329F1809166038F3FD1F3F894E091CE
:10332000650381E08E0F80936503F0E0E959FC4F5F
:10333000C083809166038F5F8093660380916503ED
:103340008F3F11F410926503E1ECF0E08081806220
:103350008083992339F0789480E090E005C081E083
:1033600090E002C080E090E0CF91089580917804D1
:103370008823E1F32FB72078F89480916604309188
:10338000780490E0831B91095AF4E09166048091DF
:103390007804F0E0E81BF109E958FB4F80810AC08E
:1033A000E091660480917804F0E0E81BF109E959A6
:1033B000FB4F808190917804915090937804222360
:1033C00009F0789490E008951092650310926603D6
:1033D00010926604109278041092770440939E0233
:1033E000DC01CB01880F991FAA1FBB1F880F991FF3
:1033F000AA1FBB1F9C01AD01220F331F441F551F85
:1034000060E072E18AE790E00E94B71CBA01A9016E
:103410004F5F5F4F6F4F7F4FDB01CA011AF4019678
:10342000A11DB11DB595A795979587950197909387
:10343000C5008093C400E1ECF0E088E180838081E6
:1034400080688083EDE7F4E08AE091E093838283F3
:103450009183808308959091780481E0911101C057
:1034600080E00895109266041092780408951F92E7
:103470000F920FB60F9211242F938F939F93EF9378
:10348000FF9380916603882329F180916503209141
:10349000660390E0821B91095AF4E09165038091E4
:1034A0006603F0E0E81BF109EA59FB4F90810AC07E
:1034B000E091650380916603F0E0E81BF109E959AA
:1034C000FC4F9081809166038150809366039093B6
:1034D000C60005C0E1ECF0E080818F7D8083FF9124
:1034E000EF919F918F912F910F900FBE0F901F9092
:1034F00018951F920F920FB60F9211242F933F939E
:103500004F935F936F937F938F939F93AF93BF93EB
:10351000CF93EF93FF93C091C60080919E028823C2
:1035200049F0809166038F3F29F060E070E08C2FB6
:103530000E947E1980917804803120F081E0809390
:10354000770418C0CD3009F4CAE0E091660481E048
:103550008E0F80936604F0E0E959FB4FC0838091A1
:1035600078048F5F8093780480916604803111F431
:1035700010926604FF91EF91CF91BF91AF919F910F
:103580008F917F916F915F914F913F912F910F900C
:103590000FBE0F901F9018958FEF87B984E08AB9FE
:1035A0008EE48093B30082E88093B00087E080933C
:1035B000B10082E08093700087BB1092A0027894E3
:1035C000089581E080939F02089510929F020895CC
:1035D000611102C05A9801C05A9AE82FF0E0E85EE3
:1035E000FE4F808188B908951F920F920FB60F92F7
:1035F00011240F931F932F933F934F935F936F93D8
:103600007F938F939F93AF93BF93CF93EF93FF934A
:103610000E94E20B882309F476C080919F028823E0
:1036200059F00E94551C6093790470937A0480933A
:103630007B0490937C040AC00E94251C609379044B
:1036400070937A0480937B0490937C040E94E80B2F
:103650006093A2027093A3028093A4029093A502A8
:103660000091790410917A0420917B0430917C04BC
:10367000DC01CB01801B910BA20BB30BBC01CD0174
:103680006856754C8F4F9F4F28EE33E040E050E076
:103690000E94951CC1E0C20F6091A102611110C08F
:1036A0008DECC89F812D1124869586958695880F6F
:1036B000982F990F990F890F9C2F981B892F16C04F
:1036C000CC2319F18DECC89F912D112496959695D8
:1036D0009695989F812D1124869586958695880FBD
:1036E000282F220F220F820F981B892F0E94E81A81
:1036F0009091A10281E0891B8093A102CA3048F415
:103700001092A10206C018B804C080E00E94E81A16
:10371000F7CFFF91EF91CF91BF91AF919F918F9193
:103720007F916F915F914F913F912F911F910F91D9
:103730000F900FBE0F901F90189594B1906B94B995
:103740002C9A90E59CBD883021F0803211F08230B7
:1037500019F491E09DBD01C01DBC803269F028F4D0
:10376000883071F0803161F00EC0803429F08038EB
:1037700051F48CB581608CBD8CB582608CBD03C06A
:103780008CB581608CBD2C9808958EBD0DB407FE5C
:10379000FDCF8EB508959F938F937F936F938FE4A2
:1037A00097E09F938F930E94D21D0F900F900F90E0
:1037B0000F900F900F9008958AE497E09F938F9356
:1037C0000E94D21D0F900F90089585E497E09F937B
:1037D0008F930E94D21D0F900F90089580E497E080
:1037E0009F938F930E94D21D0F900F9008951F9268
:1037F0008F938AE397E09F938F930E94D21D0F903F
:103800000F900F900F90089583E397E09F938F930D
:103810000E94D21D0F900F9008951092AA0210924C
:10382000AB021092AC021092AD0216BC8CE787BDC1
:1038300082E084BD83E085BDEEE6F0E080818260B9
:10384000808385B3827085BB08952FB7F89460910B
:10385000AA027091AB028091AC029091AD0222233A
:103860000CF4789408958091AA029091AB02A091F3
:10387000AC02B091AD028093A6029093A702A093F0
:10388000A802B093A90208958091A6029091A70280
:10389000A091A802B091A9028093AA029093AB02D2
:1038A000A093AC02B093AD0208956091A60270910E
:1038B000A7028091A8029091A90208951092AA02ED
:1038C0001092AB021092AC021092AD020895609378
:1038D000AA027093AB028093AC029093AD0208955C
:1038E0001F920F920FB60F9211248F939F93AF9355
:1038F000BF938091AA029091AB02A091AC02B091CB
:10390000AD020196A11DB11D8093AA029093AB0256
:10391000A093AC02B093AD02BF91AF919F918F91F4
:103920000F900FBE0F901F901895A1E21A2EAA1BA0
:10393000BB1BFD010DC0AA1FBB1FEE1FFF1FA2175F
:10394000B307E407F50720F0A21BB30BE40BF50B5C
:10395000661F771F881F991F1A9469F760957095E5
:10396000809590959B01AC01BD01CF010895052E76
:1039700097FB1EF400940E94CE1C57FD07D00E94B6
:10398000951C07FC03D04EF40C94CE1C509540952A
:10399000309521953F4F4F4F5F4F089590958095FB
:1039A000709561957F4F8F4F9F4F0895EE0FFF1FCA
:1039B0000590F491E02D09948F929F92AF92BF925F
:1039C000CF92DF92EF92FF92CF93DF93EC01688169
:1039D00079818A819B81611571058105910521F4A9
:1039E00064E279ED8BE597E02DE133EF41E050E0C3
:1039F0000E94B71C49015A019B01AC01A7EAB1E43E
:103A00000E94C2206B017C01ACEEB4EFA5019401D1
:103A10000E94D020DC01CB018C0D9D1DAE1DBF1D71
:103A2000B7FF03C00197A109B04888839983AA838F
:103A3000BB83BC01CD019F77DF91CF91FF90EF90C9
:103A4000DF90CF90BF90AF909F908F9008958F920E
:103A50009F92AF92BF92CF92DF92EF92FF926091CE
:103A600000017091010180910201909103016115A3
:103A700071058105910521F464E279ED8BE597E00C
:103A80002DE133EF41E050E00E94B71C49015A019B
:103A90009B01AC01A7EAB1E40E94C2206B017C014A
:103AA000ACEEB4EFA50194010E94D020DC01CB0163
:103AB0008C0D9D1DAE1DBF1DB7FF03C00197A10951
:103AC000B0488093000190930101A0930201B0934C
:103AD0000301BC01CD019F77FF90EF90DF90CF9065
:103AE000BF90AF909F908F90089560930001709366
:103AF000010180930201909303010895CF93DF9316
:103B0000EC012B8120FF33C026FF0AC02F7B2B83C3
:103B10008E819F8101969F838E838A8190E029C048
:103B200022FF0FC0E881F9818081082E000C990BDB
:103B3000009719F420622B831AC03196F983E88329
:103B40000EC0EA85FB85099597FF09C02B81019678
:103B500011F080E201C080E1822B8B8308C02E81AE
:103B60003F812F5F3F4F3F832E83992702C08FEF06
:103B70009FEFDF91CF910895A0E0B0E0E2ECFDE18E
:103B80000C94E520AE014B5F5F4FFA01619171919A
:103B9000AF0180917F04909180040E94FF1DE2E0BC
:103BA0000C940121A0E0B0E0E8EDFDE10C94E320ED
:103BB000AE01495F5F4FDA016D917D91AD010DE777
:103BC00014E0F80182819381DC0113962C91139704
:103BD000286013962C930E94FF1DD8011296ED9138
:103BE000FC9113972381277F2383E4E00C94FF202B
:103BF00060917F04709180040E94F61F0895ABE0ED
:103C0000B0E0E5E0FEE10C94D5206C017B018A0177
:103C1000FC0117821682838181FFCCC1CE010196FF
:103C20003C01F6019381F70193FD859193FF81910A
:103C30007F01882309F4BAC1853239F493FD859157
:103C400093FF81917F01853229F4B60190E00E94B3
:103C5000F61FE7CF912C212C312CFFE1F315D8F082
:103C60008B3279F038F4803279F08332A1F4232D4D
:103C700020611DC08D3261F0803369F4232D2160F5
:103C800016C0832D8260382EE32DE4603E2E2AC0BC
:103C9000F32DF8601DC037FC2DC020ED280F2A3011
:103CA00040F08E32B9F436FC81C1232D2064322ECF
:103CB00019C036FE06C08AE0989E200D1124922E6F
:103CC00011C0EAE02E9E200D1124222EF32DF06269
:103CD0003F2E08C08C3621F4832D8068382E02C018
:103CE000883641F4F70193FD859193FF81917F011F
:103CF0008111B3CF982F9F7D9554933028F40C5F9A
:103D00001F4F9FE399830DC0833631F0833771F0E5
:103D1000833509F059C021C0F801808189830E5F85
:103D20001F4F88248394912C530113C02801F2E083
:103D30004F0E511CF801A080B18036FE03C0692DE2
:103D400070E002C06FEF7FEFC5010E94EB1F4C01D6
:103D50008201F32DFF773F2E16C0280122E0420E8C
:103D6000511CF801A080B18036FE03C0692D70E0BF
:103D700002C06FEF7FEFC5010E94E01F4C01F32DE1
:103D8000F0683F2E820133FC1BC0822D90E0881624
:103D90009906B0F4B60180E290E00E94F61F2A94E2
:103DA000F4CFF50137FC859137FE81915F01B601B3
:103DB00090E00E94F61F21102A9421E0821A9108B7
:103DC0008114910471F7E8C0843611F0893641F509
:103DD000F80137FE07C060817181828193810C5F99
:103DE0001F4F08C060817181072E000C880B990B52
:103DF0000E5F1F4FF32DFF763F2E97FF09C0909562
:103E00008095709561957F4F8F4F9F4FF0683F2E43
:103E10002AE030E0A3010E943220882E861845C097
:103E2000853731F4232D2F7EB22E2AE030E025C0D5
:103E3000932D997FB92E8F36C1F018F4883579F01B
:103E4000B5C0803719F0883721F0B0C0E92FE061A4
:103E5000BE2EB4FE0DC0FB2DF460BF2E09C034FE93
:103E60000AC0292F2660B22E06C028E030E005C027
:103E700020E130E002C020E132E0F801B7FE07C0E7
:103E800060817181828193810C5F1F4F06C06081C8
:103E9000718180E090E00E5F1F4FA3010E943220ED
:103EA000882E8618FB2DFF773F2E36FE0DC0232D62
:103EB0002E7FA22E891458F434FE0BC032FC09C0A8
:103EC000832D8E7EA82E05C0B82CA32C03C0B82C41
:103ED00001C0B92CA4FE0FC0FE01E80DF11D8081C8
:103EE000803321F49A2D997EA92E09C0A2FE06C026
:103EF000B394B39404C08A2D867809F0B394A3FCDC
:103F000011C0A0FE06C0B21488F4280C922C9B1895
:103F10000EC0B21460F4B60180E290E00E94F61F79
:103F2000B394F7CFB21418F42B1802C0982C212C9C
:103F3000A4FE10C0B60180E390E00E94F61FA2FE2E
:103F400017C0A1FC03C088E790E002C088E590E0BC
:103F5000B6010CC08A2D867859F0A1FE02C08BE212
:103F600001C080E2A7FC8DE2B60190E00E94F61F3E
:103F7000891438F4B60180E390E00E94F61F9A9409
:103F8000F7CF8A94F301E80DF11D8081B60190E02E
:103F90000E94F61F8110F5CF222009F442CEB6010F
:103FA00080E290E00E94F61F2A94F6CFF601868107
:103FB000978102C08FEF9FEF2B96E2E10C94F120E6
:103FC000FC010590615070400110D8F780959095E4
:103FD0008E0F9F1F0895FC016150704001900110E9
:103FE000D8F7809590958E0F9F1F08950F931F937C
:103FF000CF93DF93FB01238121FD03C08FEF9FEF60
:104000002CC022FF16C0468157812481358142177A
:10401000530744F4A081B1819D012F5F3F4F31834D
:1040200020838C93268137812F5F3F4F37832683F0
:1040300014C08B01EC01FB010084F185E02D099592
:10404000892BE1F6D80116968D919C9117970196D0
:1040500017969C938E931697CE01DF91CF911F9167
:104060000F910895FA01AA27283051F1203181F1EA
:10407000E8946F936E7F6E5F7F4F8F4F9F4FAF4F70
:10408000B1E03ED0B4E03CD0670F781F891F9A1F83
:10409000A11D680F791F8A1F911DA11D6A0F711D37
:1040A000811D911DA11D20D009F468943F912AE043
:1040B000269F11243019305D3193DEF6CF0108952B
:1040C000462F4770405D4193B3E00FD0C9F7F6CF5C
:1040D000462F4F70405D4A3318F0495D31FD405224
:1040E000419302D0A9F7EACFB4E0A69597958795BA
:1040F00077956795BA95C9F7009761057105089599
:104100009B01AC010A2E0694579547953795279544
:10411000BA95C9F7620F731F841F951FA01D0895DC
:10412000DC01CB01FC01F999FECF06C0F2BDE1BD77
:10413000F89A319600B40D9241505040B8F7089566
:10414000DC01A40FB51F4150504048F0CB01840F53
:10415000951F2E910E94B12041505040D0F70895F4
:10416000262FF999FECF92BD81BDF89A019700B430
:10417000021639F01FBA20BD0FB6F894FA9AF99AD0
:104180000FBE08950E940C21A59F900DB49F900D25
:10419000A49F800D911D11240895B7FF0C94C22097
:1041A0000E94C220821B930B08952F923F924F9240
:1041B0005F926F927F928F929F92AF92BF92CF92B7
:1041C000DF92EF92FF920F931F93CF93DF93CDB7C0
:1041D000DEB7CA1BDB0B0FB6F894DEBF0FBECDBF38
:1041E00009942A88398848885F846E847D848C8409
:1041F0009B84AA84B984C884DF80EE80FD800C8112
:104200001B81AA81B981CE0FD11D0FB6F894DEBFF4
:104210000FBECDBFED010895A29FB001B39FC001B5
:10422000A39F700D811D1124911DB29F700D811DE2
:0A4230001124911D0895F894FFCFAA
:10423A000100000004010101010F00000003000059
:10424A0000007E19B61900003F065B4F666D7D07B8
:10425A007F6F2573002531306C640052656D61698A
:10426A006E696E67206E756D626572206F6620706A
:10427A0061632D646F74733A20002564004C69767B
:10428A0065733A200053617665642047616D653A2B
:10429A00205965730047616D652053617665642E08
:1042AA0000E2948000E2948200E2948C00E294900E
:1042BA0000E2949400E2949800E2949C00E294A4B0
:1042CA0000E294B400E294AC00E294BC00253130E0
:1042DA007300486967682053636F7265005361769B
:1042EA0065642047616D653A204E6F0020202020CA
:1042FA002020202000E197A400E197A200E197A7DF
:10430A0000E197A300C501C901CD01D10150616344
:10431A006D616E5943292A2E2D343531383238329F
:02432A0032005F
:00000001FF
